:100000000C9434000C9451000C9451000C94510049
:100010000C9451000C9451000C9451000C9451001C
:100020000C9451000C9451000C9451000C9451000C
:100030000C9451000C9451000C945C030C945100EE
:100040000C9451000C9451000C9415020C94510026
:100050000C9451000C9451000C9451000C945100DC
:100060000C9451000C94510011241FBECFEFD8E026
:10007000DEBFCDBF11E0A0E0B1E0EEE6FAE002C0E5
:1000800005900D92AC32B107D9F711E0ACE2B1E0C6
:1000900001C01D92A337B107E1F70E94C5010C947E
:1000A00035050C9400001F93CF93DF93162FEC01BE
:1000B00040E050E060E0E12FF0E031971FC0C9015F
:1000C000880F991F220F331F220F331F220F331F58
:1000D000280F391F7F5F872F90E08A179B077CF3DB
:1000E000899190E0C097DC012A9FC0012B9F900D61
:1000F0003A9F900D1124480F591F6F5F611738F414
:1001000070E021E030E0DF01A61BB109E4CFCA01B5
:10011000DF91CF911F910895AF92BF92CF92DF925E
:10012000EF92FF920F931F93DF93CF93CDB7DEB77C
:10013000C054D0400FB6F894DEBF0FBECDBF8C01C7
:1001400097FD03C0CC24DD2409C08DE2898310957E
:1001500001951F4FCC24C394DD24D394C80106C05D
:100160006AE070E00E940005CB01D3940097C1F7CC
:1001700026C0C901880F991F53E0220F331F5A95DB
:10018000E1F7280F391F4F5F842F90E086179707FC
:1001900084F3C801B9010E94EC04EA0DFB1D862F0F
:1001A00090E0AC01429FC001439F900D529F900D83
:1001B0001124081B190B605D6083C39409C0ED2CEA
:1001C000FF240894E108F1085E010894A11CB11C09
:1001D000CD1448F440E021E030E0EC2DF0E0B70130
:1001E0006E1B7F0BD1CFCE010196FC01ED0DF11DF1
:1001F00010820E946C02C05CDF4F0FB6F894DEBF25
:100200000FBECDBFCF91DF911F910F91FF90EF9067
:10021000DF90CF90BF90AF9008951F93CF93DF935F
:10022000EC0110E08881992787FD90950E948C0051
:1002300080E091E00E946C028981992787FD90956A
:100240000E948C0080E091E00E946C028A819927D4
:1002500087FD90950E948C0080E091E00E946C02E6
:1002600082E091E00E946C021F5F23961330D1F66A
:10027000DF91CF911F9108958F929F92AF92BF927D
:10028000CF92DF92EF92FF920F931F93DF93CF9362
:10029000CDB7DEB7C854D0400FB6F894DEBF0FBE5E
:1002A000CDBFF82EE92E85E091E00E946C020E94FD
:1002B00061028823E1F388EE93E020E931E0F9015F
:1002C0003197F1F70197D9F70E94610288EE93E028
:1002D00020E931E0F9013197F1F70197D9F78E0163
:1002E000075F1F4FC8010E94A4022F2D3E2DC90198
:1002F0007C01DD24CC2448015E010894A11CB11CC2
:100300002DC0F501E60FF11D90836F5FD394F401CA
:10031000ED0DF11D9081892F80538A3090F301C03B
:10032000D394F401ED0DF11D808180538A30C0F724
:10033000C5010E945300F701E00FF11F80830F5F9A
:100340001F4F0330110511F060E0E1CFC39483E04B
:1003500090E0E80EF91E93E0C91619F000E010E0F5
:10036000F3CFC85BDF4F0FB6F894DEBF0FBECDBF33
:10037000CF91DF911F910F91FF90EF90DF90CF9081
:10038000BF90AF909F908F900895CF92DF92EF92A1
:10039000FF920F931F93DF93CF93CDB7DEB76B9789
:1003A0000FB6F894DEBF0FBECDBF60E875E280E007
:1003B00090E00E94410229E0FE013196DF01822F88
:1003C0001D928A95E9F7AE01465F5F4FDA01822FF1
:1003D0001D928A95E9F7CE014396DC011D922A957C
:1003E000E9F77F018A016C01C7010E943C01C70146
:1003F0000E940D01C8010E943C01C8010E940D012C
:1004000086E191E00E946C02C701B801A6010E943A
:100410004204C6010E940D0183E291E00E946C0239
:100420000E9461028823E1F3DFCF1F920F920FB683
:100430000F9211248F939F93EF93FF9380912E013E
:100440009091C600E82FF0E0ED5CFE4F90838F5F47
:1004500080932E0180912E018F7380932E018091C5
:100460002C01803428F480912C018F5F80932C0123
:10047000FF91EF919F918F910F900FBE0F901F9062
:1004800018959B01AC0180E28093C00088E98093BD
:10049000C10086E08093C20084E0220F331F441F16
:1004A000551F8A95D1F760E074E284EF90E00E94D6
:1004B0001305215030403093C5002093C400789438
:1004C000089580912C010895982F8091C00085FF98
:1004D000FCCF9093C6000895FC0107C08091C00036
:1004E00085FFFCCF9093C600319690819923B1F798
:1004F00008959C01F9012F5F3F4F9491992339F0A2
:100500008091C00085FFFCCF9093C600F3CF089583
:1005100080912C01882311F4EFEF14C080912D01FC
:10052000E82FF0E0ED5CFE4FE0818F5F80932D01BE
:1005300080912D018F7380932D0180912C0181502A
:1005400080932C018E2F0895EF92FF921F93CF93EB
:10055000DF937C0110E006C00E948802CE0DDF1DF3
:1005600088831F5F80912C01C12FD0E08823A1F7E1
:10057000CE0DDF1D1882812FDF91CF911F91FF904B
:10058000EF90089580912C01882311F48FEF089546
:10059000E0912D01F0E0ED5CFE4F80810895EF9237
:1005A000FF920F931F93CF93DF930E94D0037B01A1
:1005B0008C0102C00E94880280912C01882341F0A6
:1005C000E0912D01F0E0ED5CFE4F8081803364F41A
:1005D00080912C018823A1F0E0912D01F0E0ED5CE9
:1005E000FE4F80818D3261F480912C01882399F037
:1005F000E0912D01F0E0ED5CFE4F80818A335CF0EC
:100600000E94D0036E197F09800B910B60597140D5
:100610008040904078F280912C01882361F0E09135
:100620002D01F0E0ED5CFE4F80818D3221F40E94BF
:1006300088021FEF01C011E0C0E0D0E012C00E94AC
:1006400088029E0143E0220F331F4A95E1F7CC0F49
:10065000DD1FC20FD31FE097992787FD9095C80F24
:10066000D91F80912C018823A1F0E0912D01F0E0A9
:10067000ED5CFE4F8081803364F080912C018823F3
:10068000F1F2E0912D01F0E0ED5CFE4F80818A33C4
:10069000B4F2812F992787FD9095C89F9001C99F3B
:1006A000300DD89F300D1124C901DF91CF911F91DA
:1006B0000F91FF90EF9008951F920F920FB60F9237
:1006C00011248F939F93AF93BF93DF93CF93CDB7B5
:1006D000DEB780912F0190913001A0913101B0914E
:1006E00032010196A11DB11D80932F01909330011D
:1006F000A0933101B0933201CF91DF91BF91AF91BF
:100700009F918F910F900FBE0F901F901895DF93C0
:10071000CF9300D000D00F92CDB7DEB7E4E4F0E085
:1007200082E0808380E89EE3A0E0B0E08A839B8340
:10073000AC83BD8381E0898313C08A819B81AC81B6
:10074000BD81689412F8B695A795979587951694EC
:10075000D1F78A839B83AC83BD8389818F5F898333
:100760008A819B81AC81BD818F3F9105A105B10537
:1007700009F018F7E5E4F0E089818083E7E4F0E030
:100780008A8181508083EEE6F0E082E08083789475
:100790000F900F900F900F900F90CF91DF910895D1
:1007A000DF93CF9300D000D0CDB7DEB7F89480911F
:1007B0002F0190913001A0913101B09132018983D4
:1007C0009A83AB83BC83789489819A81AB81BC8105
:1007D000BC01CD010F900F900F900F90CF91DF9142
:1007E0000895DF93CF93CDB7DEB728970FB6F8946F
:1007F000DEBF0FBECDBF6D837E838F8398870E943F
:10080000D003DC01CB0189839A83AB83BC830E9434
:10081000D0039B01AC0189819A81AB81BC81281BEB
:10082000390B4A0B5B0B8D819E81AF81B8852817F0
:1008300039074A075B0758F328960FB6F894DEBFCE
:100840000FBECDBFCF91DF910895DC01FB0120E009
:1008500007C02F5F13963396233011F481E008957B
:100860009C918081981761F411969C9111978181D8
:10087000981731F412969C9112978281981749F338
:1008800080E00895CF93DF93EC01DB01FA0120E0D3
:1008900088819C91890F808311968C911197998101
:1008A000890F818312968C9112979A81890F828386
:1008B0002F5F239613963396233051F7DF91CF9114
:1008C0000895CF93DF93EC01DB01FA0120E08881EA
:1008D0009C91891B8083898111969C911197891B1A
:1008E00081838A8112969C911297891B82832F5F44
:1008F000239613963396233051F7DF91CF910895C5
:10090000CF93DF93EC01DB01FA0120E088819C9119
:10091000899F802D1124808311968C911197998144
:10092000899F802D1124818312968C9112979A8130
:10093000899F802D112482832F5F239613963396EF
:10094000233021F7DF91CF910895DC01FB019B015A
:100950002D5F3F4F8C91808311968C9111978383EB
:1009600012968C911297868313963196E217F307AD
:1009700089F70895FC0190E020E006C08081980F7F
:100980002F5F3496233039F02223C1F32130B1F3A5
:100990002230B1F7F3CF892F0895FC0190E020E0D9
:1009A00030E007C08281980F33964330510591F0B3
:1009B0009A012430310511F48081980FA9014F5F0D
:1009C0005F4F4430510511F48181980F2230310579
:1009D00059F7E8CF892F0895AA1BBB1B51E107C027
:1009E000AA1FBB1FA617B70710F0A61BB70B881FBF
:1009F000991F5A95A9F780959095BC01CD0108954E
:100A000097FB092E07260AD077FD04D0E5DF06D034
:100A100000201AF4709561957F4F0895F6F7909530
:100A200081959F4F0895A1E21A2EAA1BBB1BFD01C1
:100A30000DC0AA1FBB1FEE1FFF1FA217B307E407BD
:100A4000F50720F0A21BB30BE40BF50B661F771F15
:100A5000881F991F1A9469F76095709580959095F5
:0E0A60009B01AC01BD01CF010895F894FFCFBA
:100A6E0020000D0A00556E657469206D61747269FF
:100A7E006375200D0A005341424952414E4A4520AA
:0C0A8E000D0A004B52414A200D0A0000E6
:00000001FF
